{
  "contractName": "Ebay",
  "abi": [
    {
      "inputs": [
        {
          "internalType": "string",
          "name": "_name",
          "type": "string"
        },
        {
          "internalType": "string",
          "name": "_description",
          "type": "string"
        },
        {
          "internalType": "uint256",
          "name": "_min",
          "type": "uint256"
        }
      ],
      "name": "createAuction",
      "outputs": [],
      "stateMutability": "nonpayable",
      "type": "function"
    },
    {
      "inputs": [
        {
          "internalType": "uint256",
          "name": "_auctionId",
          "type": "uint256"
        }
      ],
      "name": "createOffer",
      "outputs": [],
      "stateMutability": "payable",
      "type": "function"
    },
    {
      "inputs": [
        {
          "internalType": "uint256",
          "name": "_auctionId",
          "type": "uint256"
        }
      ],
      "name": "transaction",
      "outputs": [],
      "stateMutability": "nonpayable",
      "type": "function"
    },
    {
      "inputs": [],
      "name": "getAuctions",
      "outputs": [
        {
          "components": [
            {
              "internalType": "uint256",
              "name": "id",
              "type": "uint256"
            },
            {
              "internalType": "address payable",
              "name": "seller",
              "type": "address"
            },
            {
              "internalType": "string",
              "name": "name",
              "type": "string"
            },
            {
              "internalType": "string",
              "name": "description",
              "type": "string"
            },
            {
              "internalType": "uint256",
              "name": "min",
              "type": "uint256"
            },
            {
              "internalType": "uint256",
              "name": "bestOfferId",
              "type": "uint256"
            },
            {
              "internalType": "uint256[]",
              "name": "offerIds",
              "type": "uint256[]"
            }
          ],
          "internalType": "struct Ebay.Auction[]",
          "name": "",
          "type": "tuple[]"
        }
      ],
      "stateMutability": "view",
      "type": "function"
    },
    {
      "inputs": [
        {
          "internalType": "address",
          "name": "_user",
          "type": "address"
        }
      ],
      "name": "getUserOffers",
      "outputs": [
        {
          "components": [
            {
              "internalType": "uint256",
              "name": "id",
              "type": "uint256"
            },
            {
              "internalType": "uint256",
              "name": "auctionId",
              "type": "uint256"
            },
            {
              "internalType": "address payable",
              "name": "buyer",
              "type": "address"
            },
            {
              "internalType": "uint256",
              "name": "price",
              "type": "uint256"
            }
          ],
          "internalType": "struct Ebay.Offer[]",
          "name": "",
          "type": "tuple[]"
        }
      ],
      "stateMutability": "view",
      "type": "function"
    },
    {
      "inputs": [
        {
          "internalType": "address",
          "name": "_user",
          "type": "address"
        }
      ],
      "name": "getUserAuctions",
      "outputs": [
        {
          "components": [
            {
              "internalType": "uint256",
              "name": "id",
              "type": "uint256"
            },
            {
              "internalType": "address payable",
              "name": "seller",
              "type": "address"
            },
            {
              "internalType": "string",
              "name": "name",
              "type": "string"
            },
            {
              "internalType": "string",
              "name": "description",
              "type": "string"
            },
            {
              "internalType": "uint256",
              "name": "min",
              "type": "uint256"
            },
            {
              "internalType": "uint256",
              "name": "bestOfferId",
              "type": "uint256"
            },
            {
              "internalType": "uint256[]",
              "name": "offerIds",
              "type": "uint256[]"
            }
          ],
          "internalType": "struct Ebay.Auction[]",
          "name": "",
          "type": "tuple[]"
        }
      ],
      "stateMutability": "view",
      "type": "function"
    }
  ],
  "bytecode": "0x60806040526001600455600160055534801561001a57600080fd5b50611b908061002a6000396000f3fe6080604052600436106100555760003560e01c806346bd08411461005a578063661d2c2c14610083578063a269993d146100c0578063d7c06919146100dc578063ddf2070614610107578063ff3ad0b414610130575b600080fd5b34801561006657600080fd5b50610081600480360381019061007c91906113ed565b61016d565b005b34801561008f57600080fd5b506100aa60048036038101906100a5919061133b565b610369565b6040516100b7919061176c565b60405180910390f35b6100da60048036038101906100d591906113ed565b610576565b005b3480156100e857600080fd5b506100f16107c2565b6040516100fe919061174a565b60405180910390f35b34801561011357600080fd5b5061012e60048036038101906101299190611364565b610ad9565b005b34801561013c57600080fd5b506101576004803603810190610152919061133b565b610dbe565b604051610164919061174a565b60405180910390f35b8060008111801561017f575060045481105b6101be576040517f08c379a00000000000000000000000000000000000000000000000000000000081526004016101b59061178e565b60405180910390fd5b6000806000848152602001908152602001600020905060006001600083600501548152602001908152602001600020905060005b82600601805490508110156102f357600083600601828154811061023f577f4e487b7100000000000000000000000000000000000000000000000000000000600052603260045260246000fd5b90600052602060002001549050836005015481146102df5760006001600083815260200190815260200160002090508060020160009054906101000a900473ffffffffffffffffffffffffffffffffffffffff1673ffffffffffffffffffffffffffffffffffffffff166108fc82600301549081150290604051600060405180830381858888f193505050501580156102dc573d6000803e3d6000fd5b50505b5080806102eb906119ad565b9150506101f2565b508160010160009054906101000a900473ffffffffffffffffffffffffffffffffffffffff1673ffffffffffffffffffffffffffffffffffffffff166108fc82600301549081150290604051600060405180830381858888f19350505050158015610362573d6000803e3d6000fd5b5050505050565b60606000600360008473ffffffffffffffffffffffffffffffffffffffff1673ffffffffffffffffffffffffffffffffffffffff16815260200190815260200160002090506000818054905067ffffffffffffffff8111156103f4577f4e487b7100000000000000000000000000000000000000000000000000000000600052604160045260246000fd5b60405190808252806020026020018201604052801561042d57816020015b61041a611146565b8152602001906001900390816104125790505b50905060005b828054905081101561056b576001600084838154811061047c577f4e487b7100000000000000000000000000000000000000000000000000000000600052603260045260246000fd5b9060005260206000200154815260200190815260200160002060405180608001604052908160008201548152602001600182015481526020016002820160009054906101000a900473ffffffffffffffffffffffffffffffffffffffff1673ffffffffffffffffffffffffffffffffffffffff1673ffffffffffffffffffffffffffffffffffffffff16815260200160038201548152505082828151811061054d577f4e487b7100000000000000000000000000000000000000000000000000000000600052603260045260246000fd5b60200260200101819052508080610563906119ad565b915050610433565b508092505050919050565b80600081118015610588575060045481105b6105c7576040517f08c379a00000000000000000000000000000000000000000000000000000000081526004016105be9061178e565b60405180910390fd5b600080600084815260200190815260200160002090506000600160008360050154815260200190815260200160002090508160040154341015801561060f5750806003015434115b61064e576040517f08c379a0000000000000000000000000000000000000000000000000000000008152600401610645906117ae565b60405180910390fd5b6005548260050181905550816006016005549080600181540180825580915050600190039060005260206000200160009091909190915055604051806080016040528085815260200160055481526020013373ffffffffffffffffffffffffffffffffffffffff16815260200134815250600160006005548152602001908152602001600020600082015181600001556020820151816001015560408201518160020160006101000a81548173ffffffffffffffffffffffffffffffffffffffff021916908373ffffffffffffffffffffffffffffffffffffffff16021790555060608201518160030155905050600360003373ffffffffffffffffffffffffffffffffffffffff1673ffffffffffffffffffffffffffffffffffffffff1681526020019081526020016000206005549080600181540180825580915050600190039060005260206000200160009091909190915055600560008154809291906107b7906119ad565b919050555050505050565b6060600060016004546107d591906118c6565b67ffffffffffffffff811115610814577f4e487b7100000000000000000000000000000000000000000000000000000000600052604160045260246000fd5b60405190808252806020026020018201604052801561084d57816020015b61083a611184565b8152602001906001900390816108325790505b5090506000600190505b600454811015610ad1576000808281526020019081526020016000206040518060e0016040529081600082015481526020016001820160009054906101000a900473ffffffffffffffffffffffffffffffffffffffff1673ffffffffffffffffffffffffffffffffffffffff1673ffffffffffffffffffffffffffffffffffffffff1681526020016002820180546108ee9061197b565b80601f016020809104026020016040519081016040528092919081815260200182805461091a9061197b565b80156109675780601f1061093c57610100808354040283529160200191610967565b820191906000526020600020905b81548152906001019060200180831161094a57829003601f168201915b505050505081526020016003820180546109809061197b565b80601f01602080910402602001604051908101604052809291908181526020018280546109ac9061197b565b80156109f95780601f106109ce576101008083540402835291602001916109f9565b820191906000526020600020905b8154815290600101906020018083116109dc57829003601f168201915b50505050508152602001600482015481526020016005820154815260200160068201805480602002602001604051908101604052809291908181526020018280548015610a6557602002820191906000526020600020905b815481526020019060010190808311610a51575b50505050508152505082600183610a7c91906118c6565b81518110610ab3577f4e487b7100000000000000000000000000000000000000000000000000000000600052603260045260246000fd5b60200260200101819052508080610ac9906119ad565b915050610857565b508091505090565b60008111610b1c576040517f08c379a0000000000000000000000000000000000000000000000000000000008152600401610b13906117ce565b60405180910390fd5b60008067ffffffffffffffff811115610b5e577f4e487b7100000000000000000000000000000000000000000000000000000000600052604160045260246000fd5b604051908082528060200260200182016040528015610b8c5781602001602082028036833780820191505090505b5090506040518060e0016040528060045481526020013373ffffffffffffffffffffffffffffffffffffffff16815260200187878080601f016020809104026020016040519081016040528093929190818152602001838380828437600081840152601f19601f82011690508083019250505050505050815260200185858080601f016020809104026020016040519081016040528093929190818152602001838380828437600081840152601f19601f820116905080830192505050505050508152602001838152602001600081526020018281525060008060045481526020019081526020016000206000820151816000015560208201518160010160006101000a81548173ffffffffffffffffffffffffffffffffffffffff021916908373ffffffffffffffffffffffffffffffffffffffff1602179055506040820151816002019080519060200190610ce49291906111d7565b506060820151816003019080519060200190610d019291906111d7565b506080820151816004015560a0820151816005015560c0820151816006019080519060200190610d3292919061125d565b50905050600260003373ffffffffffffffffffffffffffffffffffffffff1673ffffffffffffffffffffffffffffffffffffffff168152602001908152602001600020600454908060018154018082558091505060019003906000526020600020016000909190919091505560046000815480929190610db1906119ad565b9190505550505050505050565b60606000600260008473ffffffffffffffffffffffffffffffffffffffff1673ffffffffffffffffffffffffffffffffffffffff16815260200190815260200160002090506000818054905067ffffffffffffffff811115610e49577f4e487b7100000000000000000000000000000000000000000000000000000000600052604160045260246000fd5b604051908082528060200260200182016040528015610e8257816020015b610e6f611184565b815260200190600190039081610e675790505b50905060005b828054905081101561113b57600080848381548110610ed0577f4e487b7100000000000000000000000000000000000000000000000000000000600052603260045260246000fd5b906000526020600020015481526020019081526020016000206040518060e0016040529081600082015481526020016001820160009054906101000a900473ffffffffffffffffffffffffffffffffffffffff1673ffffffffffffffffffffffffffffffffffffffff1673ffffffffffffffffffffffffffffffffffffffff168152602001600282018054610f649061197b565b80601f0160208091040260200160405190810160405280929190818152602001828054610f909061197b565b8015610fdd5780601f10610fb257610100808354040283529160200191610fdd565b820191906000526020600020905b815481529060010190602001808311610fc057829003601f168201915b50505050508152602001600382018054610ff69061197b565b80601f01602080910402602001604051908101604052809291908181526020018280546110229061197b565b801561106f5780601f106110445761010080835404028352916020019161106f565b820191906000526020600020905b81548152906001019060200180831161105257829003601f168201915b505050505081526020016004820154815260200160058201548152602001600682018054806020026020016040519081016040528092919081815260200182805480156110db57602002820191906000526020600020905b8154815260200190600101908083116110c7575b50505050508152505082828151811061111d577f4e487b7100000000000000000000000000000000000000000000000000000000600052603260045260246000fd5b60200260200101819052508080611133906119ad565b915050610e88565b508092505050919050565b60405180608001604052806000815260200160008152602001600073ffffffffffffffffffffffffffffffffffffffff168152602001600081525090565b6040518060e0016040528060008152602001600073ffffffffffffffffffffffffffffffffffffffff16815260200160608152602001606081526020016000815260200160008152602001606081525090565b8280546111e39061197b565b90600052602060002090601f016020900481019282611205576000855561124c565b82601f1061121e57805160ff191683800117855561124c565b8280016001018555821561124c579182015b8281111561124b578251825591602001919060010190611230565b5b50905061125991906112aa565b5090565b828054828255906000526020600020908101928215611299579160200282015b8281111561129857825182559160200191906001019061127d565b5b5090506112a691906112aa565b5090565b5b808211156112c35760008160009055506001016112ab565b5090565b6000813590506112d681611b2c565b92915050565b60008083601f8401126112ee57600080fd5b8235905067ffffffffffffffff81111561130757600080fd5b60208301915083600182028301111561131f57600080fd5b9250929050565b60008135905061133581611b43565b92915050565b60006020828403121561134d57600080fd5b600061135b848285016112c7565b91505092915050565b60008060008060006060868803121561137c57600080fd5b600086013567ffffffffffffffff81111561139657600080fd5b6113a2888289016112dc565b9550955050602086013567ffffffffffffffff8111156113c157600080fd5b6113cd888289016112dc565b935093505060406113e088828901611326565b9150509295509295909350565b6000602082840312156113ff57600080fd5b600061140d84828501611326565b91505092915050565b6000611422838361163c565b905092915050565b600061143683836116e6565b60808301905092915050565b600061144e838361173b565b60208301905092915050565b6114638161190c565b82525050565b60006114748261181e565b61147e8185611871565b935083602082028501611490856117ee565b8060005b858110156114cc57848403895281516114ad8582611416565b94506114b88361184a565b925060208a01995050600181019050611494565b50829750879550505050505092915050565b60006114e982611829565b6114f38185611882565b93506114fe836117fe565b8060005b8381101561152f578151611516888261142a565b975061152183611857565b925050600181019050611502565b5085935050505092915050565b600061154782611834565b6115518185611893565b935061155c8361180e565b8060005b8381101561158d5781516115748882611442565b975061157f83611864565b925050600181019050611560565b5085935050505092915050565b60006115a58261183f565b6115af81856118a4565b93506115bf818560208601611948565b6115c881611a54565b840191505092915050565b60006115e06012836118b5565b91506115eb82611a65565b602082019050919050565b6000611603604d836118b5565b915061160e82611a8e565b606082019050919050565b6000611626601c836118b5565b915061163182611b03565b602082019050919050565b600060e083016000830151611654600086018261173b565b506020830151611667602086018261145a565b506040830151848203604086015261167f828261159a565b91505060608301518482036060860152611699828261159a565b91505060808301516116ae608086018261173b565b5060a08301516116c160a086018261173b565b5060c083015184820360c08601526116d9828261153c565b9150508091505092915050565b6080820160008201516116fc600085018261173b565b50602082015161170f602085018261173b565b506040820151611722604085018261145a565b506060820151611735606085018261173b565b50505050565b6117448161193e565b82525050565b600060208201905081810360008301526117648184611469565b905092915050565b6000602082019050818103600083015261178681846114de565b905092915050565b600060208201905081810360008301526117a7816115d3565b9050919050565b600060208201905081810360008301526117c7816115f6565b9050919050565b600060208201905081810360008301526117e781611619565b9050919050565b6000819050602082019050919050565b6000819050602082019050919050565b6000819050602082019050919050565b600081519050919050565b600081519050919050565b600081519050919050565b600081519050919050565b6000602082019050919050565b6000602082019050919050565b6000602082019050919050565b600082825260208201905092915050565b600082825260208201905092915050565b600082825260208201905092915050565b600082825260208201905092915050565b600082825260208201905092915050565b60006118d18261193e565b91506118dc8361193e565b9250828210156118ef576118ee6119f6565b5b828203905092915050565b60006119058261191e565b9050919050565b60006119178261191e565b9050919050565b600073ffffffffffffffffffffffffffffffffffffffff82169050919050565b6000819050919050565b60005b8381101561196657808201518184015260208101905061194b565b83811115611975576000848401525b50505050565b6000600282049050600182168061199357607f821691505b602082108114156119a7576119a6611a25565b5b50919050565b60006119b88261193e565b91507fffffffffffffffffffffffffffffffffffffffffffffffffffffffffffffffff8214156119eb576119ea6119f6565b5b600182019050919050565b7f4e487b7100000000000000000000000000000000000000000000000000000000600052601160045260246000fd5b7f4e487b7100000000000000000000000000000000000000000000000000000000600052602260045260246000fd5b6000601f19601f8301169050919050565b7f696e76616c69642061756374696f6e2069640000000000000000000000000000600082015250565b7f6d73672e76616c7565206d7573742062652067726561746572207468616e207460008201527f6865206d696e756d756d2061756374696f6e20707269636520616e642062657360208201527f74206f6666657220707269636500000000000000000000000000000000000000604082015250565b7f6d696e2073686f756c642062652067726561746572207468616e203000000000600082015250565b611b35816118fa565b8114611b4057600080fd5b50565b611b4c8161193e565b8114611b5757600080fd5b5056fea2646970667358221220016b7b5014e02f9535233d1f4ed7494abd15ee9066b1732e1818f88e1305611864736f6c63430008010033",
  "immutableReferences": {},
  "source": "// SPDX-License-Identifier: MIT\npragma solidity ^0.8.0;\n\ncontract Ebay {\n    struct Auction {\n        uint id;\n        address payable seller;\n        string name;\n        string description;\n        uint min;\n        uint bestOfferId;\n        uint[] offerIds;\n    }\n\n    struct Offer {\n        uint id;\n        uint auctionId;\n        address payable buyer;\n        uint price;\n    }\n\n    mapping(uint => Auction) private auctions;\n    mapping(uint => Offer) private offers;\n    mapping(address => uint[]) private auctionList;\n    mapping(address => uint[]) private offerList;\n\n    uint private newAuctionId = 1;\n    uint private newOfferId = 1;\n\n    function createAuction(\n        string calldata _name,\n        string calldata _description,\n        uint _min\n    ) external {\n        require(_min > 0, \"min should be greater than 0\");\n        uint[] memory offerIds = new uint[](0);\n        auctions[newAuctionId] = Auction(\n            newAuctionId,\n            payable(msg.sender),\n            _name,\n            _description,\n            _min,\n            0,\n            offerIds\n        );\n        auctionList[msg.sender].push(newAuctionId);\n        newAuctionId++;\n    }\n\n    function createOffer(uint _auctionId) external payable auctionExists(_auctionId) {\n        Auction storage auction = auctions[_auctionId];\n        Offer storage bestOffer = offers[auction.bestOfferId];\n\n        require(msg.value >= auction.min && msg.value > bestOffer.price, \"msg.value must be greater than the minumum auction price and best offer price\");\n        auction.bestOfferId = newOfferId;\n        auction.offerIds.push(newOfferId);\n\n        offers[newOfferId] = Offer(_auctionId,newOfferId,payable(msg.sender),msg.value);\n        offerList[msg.sender].push(newOfferId);\n        newOfferId++;\n    }\n\n    function transaction(uint _auctionId) external auctionExists(_auctionId){\n        Auction storage auction = auctions[_auctionId];\n        Offer storage bestOffer = offers[auction.bestOfferId];\n\n        for (uint i = 0; i < auction.offerIds.length; i++) {\n            uint offerId = auction.offerIds[i];\n\n            if(offerId != auction.bestOfferId) {\n                Offer storage offer = offers[offerId];\n                offer.buyer.transfer(offer.price);\n            }\n        }\n\n        auction.seller.transfer(bestOffer.price);\n    }\n\n    function getAuctions() external view returns (Auction[] memory) {\n        Auction[] memory _auction = new Auction[](newAuctionId-1);\n\n        for (uint i = 1; i < newAuctionId; i++) {\n            _auction[i-1] = auctions[i];\n        }\n\n        return _auction;\n    }\n\n    function getUserOffers(address _user) external view returns (Offer[] memory) {\n        uint[] storage userOfferIds = offerList[_user];\n        Offer[] memory _offer = new Offer[](userOfferIds.length);\n\n        for (uint i = 0; i < userOfferIds.length; i++) {\n            _offer[i] = offers[userOfferIds[i]]; \n        }\n\n        return _offer;\n    }\n\n    function getUserAuctions(address _user) external view returns (Auction[] memory) {\n        uint[] storage userAuctionIds = auctionList[_user];\n        Auction[] memory _auction = new Auction[](userAuctionIds.length);\n\n        for (uint i = 0; i < userAuctionIds.length; i++) {\n            _auction[i] = auctions[userAuctionIds[i]];\n        }\n        return _auction;\n    }\n\n    modifier auctionExists(uint _auctionId) {\n        require(_auctionId >0 && _auctionId < newAuctionId, \"invalid auction id\");\n        _;\n    }\n}\n",
  "sourcePath": "/Users/ayushanand/Downloads/code eater testing/contracts/Ebay.sol",
  "compiler": {
    "name": "solc",
    "version": "0.8.1+commit.df193b15.Emscripten.clang"
  },
  "schemaVersion": "3.4.10",
  "updatedAt": "2022-12-09T23:48:58.177Z",
  "devdoc": {
    "kind": "dev",
    "methods": {},
    "version": 1
  },
  "userdoc": {
    "kind": "user",
    "methods": {},
    "version": 1
  }
}